:100000000C9472000C9493000C9493000C94930045
:100010000C9493000C9493000C9493000C94930014
:100020000C9493000C9495000C9493000C94930002
:100030000C9493000C9493000C9493000C949300F4
:100040000C9493000C9493000C9493000C949300E4
:100050000C9493000C9493000C9493000C949300D4
:100060000C9493000C9493000C94C1000C94930096
:100070000C9493000C9493000C9493000C949300B4
:100080000C9493000C9493000C9493000C949300A4
:100090000C9493000C9493000C9493000C94930094
:1000A0000C9493000C9493000C9493000C94930084
:1000B0000C9493000C9493000C9493000C94930074
:1000C0000C9493000C9493000C9493000C94930064
:1000D0000C9493000C9493000C9493000C94930054
:1000E0000C94930011241FBECFEFD1E2DEBFCDBF31
:1000F00000E00CBF22E0A6E0B2E001C01D92AF30EC
:10010000B207E1F712E0A0E0B2E0E2EEF4E000E0D6
:100110000BBF02C007900D92A630B107D9F70E941D
:10012000F5000C946F020C9400001F920F920FB612
:100130000F9211248F939F9381E080930802809106
:10014000060290910702019690930702809306029F
:100150009F918F910F900FBE0F901F901895109246
:10016000C50082E28093C400E0ECF0E08081826010
:10017000808386E08093C20088E98093C1007894F0
:1001800008951F920F920FB60F9211240BB60F9283
:100190008F93AF93BF93EF93FF93A9E0B2E08C915D
:1001A000E6ECF0E0808311968C918083E1ECF0E046
:1001B00080818F7D8083FF91EF91BF91AF918F916F
:1001C0000F900BBE0F900FBE0F901F901895DC0183
:1001D0002C91E9E0F2E0208311968C918183E1EC8F
:1001E000F0E080818062808308950E94AF0084B136
:1001F0008F7084B985B1806F85B980916800816006
:100200008093680080916B00806F80936B0078947E
:1002100088248394912CDD24D39480910802882330
:10022000E1F310920802CAE004E010E083B190E02C
:10023000002E02C0959587950A94E2F780FD06C0CE
:100240000F5F1F4FCF5FCD3089F7E7CF82E090E09F
:100250000E944E017C01FC01C08311820E94E700D4
:100260009401002E02C0220F331F0A94E2F783B1DB
:1002700090E082239323892BD1F782E090E00E94C3
:100280004E015C01FC01C083D1820E94E700C701DE
:100290000E94E601C5010E94E601D2CF0F931F9391
:1002A000CF93DF938230910510F482E090E0E091EB
:1002B0000D02F0910E0220E030E0A0E0B0E03097B7
:1002C00019F1408151810281138148175907C8F003
:1002D0008417950769F4109731F012960C931297D2
:1002E00013961C9327C000930D0210930E0222C098
:1002F0002115310519F04217530718F49A01BD0171
:10030000EF01DF01F801DBCF21153105F9F0281BE2
:10031000390B2430310580F48A819B816115710588
:1003200021F0FB019383828304C090930E0280939B
:100330000D02FE01329644C0FE01E20FF31F8193CD
:10034000919322503109398328833AC020910B02BE
:1003500030910C02232B41F42091020230910302D0
:1003600030930C0220930B02209100023091010285
:100370002115310541F42DB73EB74091040250914B
:100380000502241B350BE0910B02F0910C02E217E1
:10039000F307A0F42E1B3F0B2817390778F0AC01A8
:1003A0004E5F5F4F2417350748F04E0F5F1F509385
:1003B0000C0240930B028193919302C0E0E0F0E0C5
:1003C000CF01DF91CF911F910F910895CF93DF93CC
:1003D000009709F481C0FC01329713821282A09128
:1003E0000D02B0910E02109781F420813181820FAD
:1003F000931F20910B0230910C022817390751F5F9
:10040000F0930C02E0930B0267C0ED0120E030E0B6
:10041000CE17DF0740F44A815B819E0141155105EB
:10042000F1F0EA01F5CFD383C28340815181840F7B
:10043000951FC817D90759F488819981840F951F92
:100440000296918380838A819B8193838283211585
:10045000310529F4F0930E02E0930D023DC0E9014D
:10046000FB83EA8349915991C40FD51FEC17FD070F
:1004700061F480819181840F951F0296E90199832F
:100480008883828193819B838A83E0E0F0E01296E7
:100490008D919C911397009719F0FD01DC01F7CF26
:1004A0008D919C9111979D012E5F3F4F820F931F5D
:1004B00020910B0230910C022817390769F430970C
:1004C00029F410920E0210920D0202C013821282C1
:1004D000B0930C02A0930B02DF91CF910895F89492
:0204E000FFCF4C
:0604E20000000F022000E3
:00000001FF
